{
  "_format": "hh-sol-artifact-1",
  "contractName": "LoanPoolFactory",
  "sourceName": "contracts/LoanPoolFactory.sol",
  "abi": [
    {
      "anonymous": false,
      "inputs": [
        {
          "indexed": false,
          "internalType": "uint256",
          "name": "id",
          "type": "uint256"
        },
        {
          "indexed": false,
          "internalType": "address",
          "name": "loanPool",
          "type": "address"
        },
        {
          "indexed": false,
          "internalType": "uint256",
          "name": "collateralAmount",
          "type": "uint256"
        },
        {
          "indexed": false,
          "internalType": "uint256",
          "name": "minimumBidAmount",
          "type": "uint256"
        },
        {
          "indexed": false,
          "internalType": "uint256",
          "name": "auctionInterval",
          "type": "uint256"
        },
        {
          "indexed": false,
          "internalType": "uint256",
          "name": "auctionDuration",
          "type": "uint256"
        },
        {
          "indexed": false,
          "internalType": "uint8",
          "name": "maxParticipants",
          "type": "uint8"
        },
        {
          "indexed": false,
          "internalType": "address",
          "name": "tokenAddress",
          "type": "address"
        },
        {
          "indexed": false,
          "internalType": "string",
          "name": "lendingPool",
          "type": "string"
        },
        {
          "indexed": false,
          "internalType": "address",
          "name": "creator",
          "type": "address"
        },
        {
          "indexed": false,
          "internalType": "uint256",
          "name": "createdAt",
          "type": "uint256"
        }
      ],
      "name": "LoanPoolNew",
      "type": "event"
    },
    {
      "inputs": [
        {
          "internalType": "uint256",
          "name": "maximumBidAmount",
          "type": "uint256"
        },
        {
          "internalType": "uint256",
          "name": "minimumBidAmount",
          "type": "uint256"
        },
        {
          "internalType": "uint256",
          "name": "auctionInterval",
          "type": "uint256"
        },
        {
          "internalType": "uint256",
          "name": "auctionDuration",
          "type": "uint256"
        },
        {
          "internalType": "uint8",
          "name": "maxParticipants",
          "type": "uint8"
        },
        {
          "internalType": "address",
          "name": "token",
          "type": "address"
        }
      ],
      "name": "addPoolLoan",
      "outputs": [],
      "stateMutability": "nonpayable",
      "type": "function"
    },
    {
      "inputs": [],
      "name": "totalPools",
      "outputs": [
        {
          "internalType": "uint256",
          "name": "",
          "type": "uint256"
        }
      ],
      "stateMutability": "view",
      "type": "function"
    }
  ],
  "bytecode": "0x6080604052736b175474e89094c44da98b954eedeac495271d0f600160006101000a81548173ffffffffffffffffffffffffffffffffffffffff021916908373ffffffffffffffffffffffffffffffffffffffff16021790555034801561006557600080fd5b50612b8e806100756000396000f3fe608060405234801561001057600080fd5b50600436106100365760003560e01c8063ab3c7e521461003b578063c791731a14610059575b600080fd5b6100436100d2565b6040518082815260200191505060405180910390f35b6100d0600480360360c081101561006f57600080fd5b8101908080359060200190929190803590602001909291908035906020019092919080359060200190929190803560ff169060200190929190803573ffffffffffffffffffffffffffffffffffffffff1690602001909291905050506100d8565b005b60005481565b6000808787878787876040516100ed90610257565b808781526020018681526020018581526020018481526020018360ff1681526020018273ffffffffffffffffffffffffffffffffffffffff1681526020019650505050505050604051809103906000f08015801561014f573d6000803e3d6000fd5b50905080915060008081548092919060010191905055507f050b19aed86dbe9d850bb761ae8a681aea67b8a8cd9c465a7620e099f9310654600054838660ff168b028a8a8a8a8a3342604051808b81526020018a73ffffffffffffffffffffffffffffffffffffffff1681526020018981526020018881526020018781526020018681526020018560ff1681526020018473ffffffffffffffffffffffffffffffffffffffff168152602001806020018473ffffffffffffffffffffffffffffffffffffffff1681526020018381526020018281038252602a815260200180612b2f602a91396040019b50505050505050505050505060405180910390a15050505050505050565b6128ca806102658339019056fe608060405234801561001057600080fd5b506040516128ca3803806128ca833981810160405260c081101561003357600080fd5b81019080805190602001909291908051906020019092919080519060200190929190805190602001909291908051906020019092919080519060200190929190505050736b175474e89094c44da98b954eedeac495271d0f6000806101000a81548173ffffffffffffffffffffffffffffffffffffffff021916908373ffffffffffffffffffffffffffffffffffffffff160217905550737fc66500c84a76ad7e9c93437bfc5ac33e2ddae9600160006101000a81548173ffffffffffffffffffffffffffffffffffffffff021916908373ffffffffffffffffffffffffffffffffffffffff160217905550735c94e75316cad5f5e0ef2e8a460bd4abad6222ee600260006101000a81548173ffffffffffffffffffffffffffffffffffffffff021916908373ffffffffffffffffffffffffffffffffffffffff160217905550737bf52810f9ff7f13c99f12d5512e840850edb3b2600360006101000a81548173ffffffffffffffffffffffffffffffffffffffff021916908373ffffffffffffffffffffffffffffffffffffffff16021790555080600460006101000a81548173ffffffffffffffffffffffffffffffffffffffff021916908373ffffffffffffffffffffffffffffffffffffffff160217905550846005819055508160068190555083600a8190555082600b819055508186026007819055504260088190555050505050505061267f8061024b6000396000f3fe6080604052600436106101855760003560e01c8063929066f5116100d1578063ce79a7c31161008a578063eb388f6e11610064578063eb388f6e14610646578063ed3d6c5d14610671578063f669db83146106d8578063fc0c546a146107275761018c565b8063ce79a7c3146105d9578063d11711a214610604578063d1b7dd1a1461061b5761018c565b8063929066f51461049b57806392d09ceb14610502578063a26dbf261461052d578063abd70aa214610558578063ba1c5e8014610583578063c44e6640146105ae5761018c565b8063454a2ab31161013e5780635cf20efd116101185780635cf20efd146104175780635e118c8e1461042e5780636b8a3ab11461045957806370f2a5bb146104705761018c565b8063454a2ab31461034a57806349399729146103855780635064e4b2146103b05761018c565b80630be56d34146101915780630cbf54c8146101bc5780631b7ff614146101e757806324924bf7146102555780633058a32714610280578063451df52e146102e55761018c565b3661018c57005b600080fd5b34801561019d57600080fd5b506101a6610768565b6040518082815260200191505060405180910390f35b3480156101c857600080fd5b506101d1610853565b6040518082815260200191505060405180910390f35b3480156101f357600080fd5b506102366004803603602081101561020a57600080fd5b81019080803573ffffffffffffffffffffffffffffffffffffffff169060200190929190505050610859565b6040518083151581526020018281526020019250505060405180910390f35b34801561026157600080fd5b5061026a610901565b6040518082815260200191505060405180910390f35b34801561028c57600080fd5b506102cf600480360360208110156102a357600080fd5b81019080803573ffffffffffffffffffffffffffffffffffffffff169060200190929190505050610907565b6040518082815260200191505060405180910390f35b3480156102f157600080fd5b5061031e6004803603602081101561030857600080fd5b810190808035906020019092919050505061091f565b604051808273ffffffffffffffffffffffffffffffffffffffff16815260200191505060405180910390f35b34801561035657600080fd5b506103836004803603602081101561036d57600080fd5b8101908080359060200190929190505050610952565b005b34801561039157600080fd5b5061039a610e2a565b6040518082815260200191505060405180910390f35b3480156103bc57600080fd5b506103ff600480360360208110156103d357600080fd5b81019080803573ffffffffffffffffffffffffffffffffffffffff169060200190929190505050610e30565b60405180821515815260200191505060405180910390f35b34801561042357600080fd5b5061042c610e50565b005b34801561043a57600080fd5b506104436113bc565b6040518082815260200191505060405180910390f35b34801561046557600080fd5b5061046e6113e8565b005b34801561047c57600080fd5b50610485611785565b6040518082815260200191505060405180910390f35b3480156104a757600080fd5b506104ea600480360360208110156104be57600080fd5b81019080803573ffffffffffffffffffffffffffffffffffffffff16906020019092919050505061178b565b60405180821515815260200191505060405180910390f35b34801561050e57600080fd5b506105176117ab565b6040518082815260200191505060405180910390f35b34801561053957600080fd5b506105426117b1565b6040518082815260200191505060405180910390f35b34801561056457600080fd5b5061056d6117b7565b6040518082815260200191505060405180910390f35b34801561058f57600080fd5b5061059861192a565b6040518082815260200191505060405180910390f35b3480156105ba57600080fd5b506105c3611a15565b6040518082815260200191505060405180910390f35b3480156105e557600080fd5b506105ee611a4e565b6040518082815260200191505060405180910390f35b34801561061057600080fd5b50610619611a54565b005b34801561062757600080fd5b50610630611fd9565b6040518082815260200191505060405180910390f35b34801561065257600080fd5b5061065b612013565b6040518082815260200191505060405180910390f35b34801561067d57600080fd5b506106c06004803603602081101561069457600080fd5b81019080803573ffffffffffffffffffffffffffffffffffffffff169060200190929190505050612054565b60405180821515815260200191505060405180910390f35b3480156106e457600080fd5b50610711600480360360208110156106fb57600080fd5b8101908080359060200190929190505050612074565b6040518082815260200191505060405180910390f35b34801561073357600080fd5b5061073c61208c565b604051808273ffffffffffffffffffffffffffffffffffffffff16815260200191505060405180910390f35b6000600360009054906101000a900473ffffffffffffffffffffffffffffffffffffffff1673ffffffffffffffffffffffffffffffffffffffff1663c540148e60008054906101000a900473ffffffffffffffffffffffffffffffffffffffff166040518263ffffffff1660e01b8152600401808273ffffffffffffffffffffffffffffffffffffffff16815260200191505060206040518083038186803b15801561081357600080fd5b505afa158015610827573d6000803e3d6000fd5b505050506040513d602081101561083d57600080fd5b8101908080519060200190929190505050905090565b600b5481565b6000806000806000600190505b6001610870611a15565b0181116108f3578573ffffffffffffffffffffffffffffffffffffffff16600f600083815260200190815260200160002060009054906101000a900473ffffffffffffffffffffffffffffffffffffffff1673ffffffffffffffffffffffffffffffffffffffff1614156108e657600192508091505b8080600101915050610866565b508181935093505050915091565b60065481565b60126020528060005260406000206000915090505481565b600f6020528060005260406000206000915054906101000a900473ffffffffffffffffffffffffffffffffffffffff1681565b61095a6113bc565b42106109ce576040517f08c379a00000000000000000000000000000000000000000000000000000000081526004018080602001828103825260148152602001807f41756374696f6e20446f6e65204475737465642100000000000000000000000081525060200191505060405180910390fd5b6109d6612013565b42101580156109ec57506109e8611fd9565b4211155b610a41576040517f08c379a00000000000000000000000000000000000000000000000000000000081526004018080602001828103825260268152602001806125b26026913960400191505060405180910390fd5b600e60003373ffffffffffffffffffffffffffffffffffffffff1673ffffffffffffffffffffffffffffffffffffffff16815260200190815260200160002060009054906101000a900460ff16610ae3576040517f08c379a000000000000000000000000000000000000000000000000000000000815260040180806020018281038252602b81526020018061261f602b913960400191505060405180910390fd5b601160003373ffffffffffffffffffffffffffffffffffffffff1673ffffffffffffffffffffffffffffffffffffffff16815260200190815260200160002060009054906101000a900460ff1615610ba3576040517f08c379a000000000000000000000000000000000000000000000000000000000815260040180806020018281038252601e8152602001807f536f7272792c20796f7520616c726561647920686176652061206c6f616e000081525060200191505060405180910390fd5b6005548110158015610bce575060106000610bbc611a15565b81526020019081526020016000205481115b610c40576040517f08c379a000000000000000000000000000000000000000000000000000000000815260040180806020018281038252601d8152602001807f506c6561736520656e7465722076616c69642062696420616d6f756e7400000081525060200191505060405180910390fd5b6005548110158015610c6b575060106000610c59611a15565b81526020019081526020016000205481115b610cdd576040517f08c379a000000000000000000000000000000000000000000000000000000000815260040180806020018281038252601e8152602001807f506c6561736520656e7465722076616c69642062696420616d6f756e7421000081525060200191505060405180910390fd5b8060106000610cea611a15565b81526020019081526020016000208190555033600f6000610d09611a15565b815260200190815260200160002060006101000a81548173ffffffffffffffffffffffffffffffffffffffff021916908373ffffffffffffffffffffffffffffffffffffffff1602179055508060075403601260003373ffffffffffffffffffffffffffffffffffffffff1673ffffffffffffffffffffffffffffffffffffffff168152602001908152602001600020819055507f625ebea6a17289d0ea8a516e1e544d210d48dc22b7c81212be46fd226d78bc68303383610dc9611a15565b42604051808673ffffffffffffffffffffffffffffffffffffffff1681526020018573ffffffffffffffffffffffffffffffffffffffff1681526020018481526020018381526020018281526020019550505050505060405180910390a150565b60055481565b60136020528060005260406000206000915054906101000a900460ff1681565b600080610e5c33610859565b9150915081610eb6576040517f08c379a00000000000000000000000000000000000000000000000000000000081526004018080602001828103825260228152602001806125d86022913960400191505060405180910390fd5b600160095403811015610f2757610ecb611a15565b8110610f22576040517f08c379a000000000000000000000000000000000000000000000000000000000815260040180806020018281038252602f815260200180612583602f913960400191505060405180910390fd5b610f91565b6009548110610f9057610f38611fd9565b4211610f8f576040517f08c379a000000000000000000000000000000000000000000000000000000000815260040180806020018281038252602f815260200180612583602f913960400191505060405180910390fd5b5b5b611080600460009054906101000a900473ffffffffffffffffffffffffffffffffffffffff1673ffffffffffffffffffffffffffffffffffffffff1663313ce5676040518163ffffffff1660e01b815260040160206040518083038186803b158015610ffc57600080fd5b505afa158015611010573d6000803e3d6000fd5b505050506040513d602081101561102657600080fd5b8101908080519060200190929190505050600a0a601260003373ffffffffffffffffffffffffffffffffffffffff1673ffffffffffffffffffffffffffffffffffffffff16815260200190815260200160002054026120b2565b6110d5576040517f08c379a00000000000000000000000000000000000000000000000000000000081526004018080602001828103825260218152602001806125406021913960400191505060405180910390fd5b6001601160003373ffffffffffffffffffffffffffffffffffffffff1673ffffffffffffffffffffffffffffffffffffffff16815260200190815260200160002060006101000a81548160ff021916908315150217905550600c60008154809291906001019190505550600460009054906101000a900473ffffffffffffffffffffffffffffffffffffffff1673ffffffffffffffffffffffffffffffffffffffff1663a9059cbb33600460009054906101000a900473ffffffffffffffffffffffffffffffffffffffff1673ffffffffffffffffffffffffffffffffffffffff1663313ce5676040518163ffffffff1660e01b815260040160206040518083038186803b1580156111e657600080fd5b505afa1580156111fa573d6000803e3d6000fd5b505050506040513d602081101561121057600080fd5b8101908080519060200190929190505050600a0a601260003373ffffffffffffffffffffffffffffffffffffffff1673ffffffffffffffffffffffffffffffffffffffff16815260200190815260200160002054026040518363ffffffff1660e01b8152600401808373ffffffffffffffffffffffffffffffffffffffff16815260200182815260200192505050602060405180830381600087803b1580156112b857600080fd5b505af11580156112cc573d6000803e3d6000fd5b505050506040513d60208110156112e257600080fd5b8101908080519060200190929190505050507fdc4e55fec3f37e558f1af04f6ee331a690c931ca42e909f813b2b9f519708b813033601260003373ffffffffffffffffffffffffffffffffffffffff1673ffffffffffffffffffffffffffffffffffffffff168152602001908152602001600020546001611361611a15565b03604051808573ffffffffffffffffffffffffffffffffffffffff1681526020018473ffffffffffffffffffffffffffffffffffffffff16815260200183815260200182815260200194505050505060405180910390a15050565b6000612a30600a546001600954116113d6576009546113dd565b6001600954035b020260085401905090565b6113f06113bc565b4211611464576040517f08c379a00000000000000000000000000000000000000000000000000000000081526004018080602001828103825260178152602001807f506f6f6c206973207374696c6c2061637469766520212100000000000000000081525060200191505060405180910390fd5b600e60003373ffffffffffffffffffffffffffffffffffffffff1673ffffffffffffffffffffffffffffffffffffffff16815260200190815260200160002060009054906101000a900460ff16611506576040517f08c379a000000000000000000000000000000000000000000000000000000000815260040180806020018281038252602681526020018061251a6026913960400191505060405180910390fd5b600061151061214a565b9050600d600081548092919060010191905055506001601360003373ffffffffffffffffffffffffffffffffffffffff1673ffffffffffffffffffffffffffffffffffffffff16815260200190815260200160002060006101000a81548160ff021916908315150217905550601160003373ffffffffffffffffffffffffffffffffffffffff1673ffffffffffffffffffffffffffffffffffffffff16815260200190815260200160002060009054906101000a900460ff16156115e257600c60008154809291906001900391905055505b6115eb816120b2565b611640576040517f08c379a00000000000000000000000000000000000000000000000000000000081526004018080602001828103825260258152602001806125fa6025913960400191505060405180910390fd5b600460009054906101000a900473ffffffffffffffffffffffffffffffffffffffff1673ffffffffffffffffffffffffffffffffffffffff1663a9059cbb33836040518363ffffffff1660e01b8152600401808373ffffffffffffffffffffffffffffffffffffffff16815260200182815260200192505050602060405180830381600087803b1580156116d357600080fd5b505af11580156116e7573d6000803e3d6000fd5b505050506040513d60208110156116fd57600080fd5b8101908080519060200190929190505050507f7d208c09370c8e7a8d8bb5d21cd54b735cc36a272fa11c2310d8f13db7f77890303383604051808473ffffffffffffffffffffffffffffffffffffffff1681526020018373ffffffffffffffffffffffffffffffffffffffff168152602001828152602001935050505060405180910390a150565b60085481565b600e6020528060005260406000206000915054906101000a900460ff1681565b60075481565b60095481565b600080600260009054906101000a900473ffffffffffffffffffffffffffffffffffffffff1673ffffffffffffffffffffffffffffffffffffffff166328dd2d0160008054906101000a900473ffffffffffffffffffffffffffffffffffffffff16306040518363ffffffff1660e01b8152600401808373ffffffffffffffffffffffffffffffffffffffff1681526020018273ffffffffffffffffffffffffffffffffffffffff168152602001925050506101406040518083038186803b15801561188257600080fd5b505afa158015611896573d6000803e3d6000fd5b505050506040513d6101408110156118ad57600080fd5b810190808051906020019092919080519060200190929190805190602001909291908051906020019092919080519060200190929190805190602001909291908051906020019092919080519060200190929190805190602001909291908051906020019092919050505050505050505050505090508091505090565b6000600360009054906101000a900473ffffffffffffffffffffffffffffffffffffffff1673ffffffffffffffffffffffffffffffffffffffff166388079d8860008054906101000a900473ffffffffffffffffffffffffffffffffffffffff166040518263ffffffff1660e01b8152600401808273ffffffffffffffffffffffffffffffffffffffff16815260200191505060206040518083038186803b1580156119d557600080fd5b505afa1580156119e9573d6000803e3d6000fd5b505050506040513d60208110156119ff57600080fd5b8101908080519060200190929190505050905090565b6000806001612a30600b54600a540302600854420381611a3157fe5b040190506009548110611a475760016009540390505b8091505090565b600a5481565b610e10600a540260085401421115611ab7576040517f08c379a00000000000000000000000000000000000000000000000000000000081526004018080602001828103825260278152602001806124f36027913960400191505060405180910390fd5b6006546001600954011115611b34576040517f08c379a000000000000000000000000000000000000000000000000000000000815260040180806020018281038252601f8152602001807f536f727279206d6178207061727469636961706e742069732066696c6c65640081525060200191505060405180910390fd5b600e60003373ffffffffffffffffffffffffffffffffffffffff1673ffffffffffffffffffffffffffffffffffffffff16815260200190815260200160002060009054906101000a900460ff1615611bd7576040517f08c379a00000000000000000000000000000000000000000000000000000000081526004018080602001828103825260228152602001806125616022913960400191505060405180910390fd5b600460009054906101000a900473ffffffffffffffffffffffffffffffffffffffff1673ffffffffffffffffffffffffffffffffffffffff166323b872dd3330600460009054906101000a900473ffffffffffffffffffffffffffffffffffffffff1673ffffffffffffffffffffffffffffffffffffffff1663313ce5676040518163ffffffff1660e01b815260040160206040518083038186803b158015611c7f57600080fd5b505afa158015611c93573d6000803e3d6000fd5b505050506040513d6020811015611ca957600080fd5b8101908080519060200190929190505050600a0a600754026040518463ffffffff1660e01b8152600401808473ffffffffffffffffffffffffffffffffffffffff1681526020018373ffffffffffffffffffffffffffffffffffffffff1681526020018281526020019350505050602060405180830381600087803b158015611d3157600080fd5b505af1158015611d45573d6000803e3d6000fd5b505050506040513d6020811015611d5b57600080fd5b8101908080519060200190929190505050611dde576040517f08c379a00000000000000000000000000000000000000000000000000000000081526004018080602001828103825260158152602001807f5472616e73666572204552433230206661696c6564000000000000000000000081525060200191505060405180910390fd5b611e90600460009054906101000a900473ffffffffffffffffffffffffffffffffffffffff1673ffffffffffffffffffffffffffffffffffffffff1663313ce5676040518163ffffffff1660e01b815260040160206040518083038186803b158015611e4957600080fd5b505afa158015611e5d573d6000803e3d6000fd5b505050506040513d6020811015611e7357600080fd5b8101908080519060200190929190505050600a0a60075402612323565b611f02576040517f08c379a000000000000000000000000000000000000000000000000000000000815260040180806020018281038252601e8152602001807f4465706f736974696e6720636f6c6c61746572616c206661696c64203a28000081525060200191505060405180910390fd5b6001600e60003373ffffffffffffffffffffffffffffffffffffffff1673ffffffffffffffffffffffffffffffffffffffff16815260200190815260200160002060006101000a81548160ff0219169083151502179055506009600081548092919060010191905055507fb1a51db29d2bc7ad3182bd9f7909094c0dfddf3b0fb5708039638f307e9590343033604051808373ffffffffffffffffffffffffffffffffffffffff1681526020018273ffffffffffffffffffffffffffffffffffffffff1681526020019250505060405180910390a1565b600080611fe46113bc565b42108015611ff457506001600954115b1561200c57612a30600b5402612008612013565b0190505b8091505090565b60008061201e6113bc565b4210801561202e57506001600954115b1561204d57612a30600a546001612043611a15565b0302026008540190505b8091505090565b60116020528060005260406000206000915054906101000a900460ff1681565b60106020528060005260406000206000915090505481565b600460009054906101000a900473ffffffffffffffffffffffffffffffffffffffff1681565b6000600160009054906101000a900473ffffffffffffffffffffffffffffffffffffffff1673ffffffffffffffffffffffffffffffffffffffff1663db006a75836040518263ffffffff1660e01b815260040180828152602001915050600060405180830381600087803b15801561212957600080fd5b505af115801561213d573d6000803e3d6000fd5b5050505060019050919050565b6000601160003373ffffffffffffffffffffffffffffffffffffffff1673ffffffffffffffffffffffffffffffffffffffff16815260200190815260200160002060009054906101000a900460ff1661224c57600460009054906101000a900473ffffffffffffffffffffffffffffffffffffffff1673ffffffffffffffffffffffffffffffffffffffff1663313ce5676040518163ffffffff1660e01b815260040160206040518083038186803b15801561220557600080fd5b505afa158015612219573d6000803e3d6000fd5b505050506040513d602081101561222f57600080fd5b8101908080519060200190929190505050600a0a6007540261224f565b60005b600d5460095403600460009054906101000a900473ffffffffffffffffffffffffffffffffffffffff1673ffffffffffffffffffffffffffffffffffffffff1663313ce5676040518163ffffffff1660e01b815260040160206040518083038186803b1580156122be57600080fd5b505afa1580156122d2573d6000803e3d6000fd5b505050506040513d60208110156122e857600080fd5b8101908080519060200190929190505050600a0a600754600d54600c54600954030302026123146117b7565b038161231c57fe5b0401905090565b60008060009054906101000a900473ffffffffffffffffffffffffffffffffffffffff1673ffffffffffffffffffffffffffffffffffffffff1663095ea7b3600360009054906101000a900473ffffffffffffffffffffffffffffffffffffffff16846040518363ffffffff1660e01b8152600401808373ffffffffffffffffffffffffffffffffffffffff16815260200182815260200192505050602060405180830381600087803b1580156123d957600080fd5b505af11580156123ed573d6000803e3d6000fd5b505050506040513d602081101561240357600080fd5b810190808051906020019092919050505050600260009054906101000a900473ffffffffffffffffffffffffffffffffffffffff1673ffffffffffffffffffffffffffffffffffffffff1663d2d0e06660008054906101000a900473ffffffffffffffffffffffffffffffffffffffff168460006040518463ffffffff1660e01b8152600401808473ffffffffffffffffffffffffffffffffffffffff1681526020018381526020018281526020019350505050600060405180830381600087803b1580156124d157600080fd5b505af11580156124e5573d6000803e3d6000fd5b505050506001905091905056fe536f7272792c20796f752063616e27742070617274696369706174652e2054696d65206f757421596f7520617265206e6f742061207061727469636970616e74206f66207468697320706f6f6c4f6f70732120556e61626c6520746f20776974686472617721204641494c454421596f752061726520616c726561647920612070617274206f662074686520706f6f6c536f7272792c207761697420756e74696c2061756374696f6e20697320646f6e6520746f20636c61696d206c6f616e41756374696f6e206973206f7665722c20626574746572206c75636b206e6578742074696d65536f72727920796f752061696e27742074686520686967686573742062696464657257697468647261776c2066726f6d206c656e64696e6720706f6f6c206661696c6564202121506c6561736520626520612070617274206f662074686520706f6f6c20746f207061727469636961707465a2646970667358221220add42eef9cc6d366e43d0b5a5177b6f87307ad99195c34b764e9f4d79349455164736f6c63430007030033307837466336363530306338344137364164376539633933343337624663354163333345324444614539a2646970667358221220b5942a216fa2a233b0f4b60a58c7e04ca9b699a642b6193e58c2c49ef97b94c764736f6c63430007030033",
  "linkReferences": {},
  "deployedLinkReferences": {}
}